:0E000000021AFD021D1B32283029000219EDE4
:03001300021D3299
:10002300021DB0CAD8CA796CFF0A3F2E3400B07CD7
:10003300B7121C5C7401121C5C7410121C5C6CDD26
:10004300E4121C810BD0BED08478F50BF0BEF0080F
:0700530040D7DA79DAD82268
:03005B00021D493A
:10006300020006C28CD2A95389FCE589F58953891C
:10007300FB5395FE53937F758CCF758A2CD28C22BC
:03008300021D60FB
:03009300021B87C6
:03009B00021BC085
:1000A300021BF602035C6E00807CB1337CB03368C4
:1000B3000D0468EF7CB5337CB43378037F102204DE
:1000C30068E17D5092F77D457D51BF2140067C80DC
:1000D3007F017F1212031F7EA1D05CB0047803203E
:1000E300D5C17CB00478075002B2D502036492D51F
:1000F300BE80FF68F67CB89CB06C00602AB418051B
:100103007C4102033850FB80032F00047C9B5E90EC
:100113000778F630E4067C437D106D0030E3087CFD
:10012300437C327C210A0030F5199F10780E22029D
:1001330003611B8068F92F1150020B707CB530E707
:10014300F1801B2D317CB5A5397C5B50110B807878
:10015300030203641E341350034E60801A2B020300
:10016300385D22680D5D0078122D220B4068099FCF
:1001730011222D000B0078F902035C12031F5C802F
:100183000B806808248150072CB0500A0203642CAA
:10019300B040030203617C8B5D1178267CB17CA5A2
:1001A300BE1080680A5D33780DA5BD80057F1002FF
:1001B300034E6D0080307F017C5B7CB17CA5AD126A
:1001C30080245D337806A5BD80F080E1CA887D4137
:1001D300AD437CB17CA5AD122D1450020B047C5BA6
:1001E300AD232F01DA88A42D05BE008040060B80C5
:1001F300780480982F007C437C507C617C720203DE
:1002030038BE24FFFF6806BE04FFFF780302035CC9
:1002130012031F5CB00468F57CB8A54868EF7CB88E
:1002230070039F1122A5B800030203642E008150BE
:10023300079C8038070203619C8050ED0A51C2E796
:100243004D51780302034E7E5400807E901A6C0059
:1002530080061B9068142F11BF1040049F104CABF5
:100263000330E7EECAA86CAA80E8DA39DA587C4A88
:10027300BE5080500A1B8068BC2F1150020B7002C5
:1002830003387EA020800C7EA01080057EA0086C21
:10029300556D333392D5500A6E34FFFF6E24FFFF42
:1002A3000B1CA5EC3340062F11D5F0F6227CBA24A3
:1002B3007EA2D5137C767C65A5CC92E77C5B227C01
:1002C300B5337CB43392D54E5080248140039F11C3
:1002D300227C457C567C676C7724E0500E7E1CFFA5
:1002E300FF221E341E2450034E60800478F430D560
:1002F3000A6E34FFFF6E24FFFF0B1C227F707F51B9
:100303007EC400017ED400467E9403120203E340C0
:1003130005E47A7BB0227A7BB00B7C222D0092D548
:100323000E104E10807D422D445002B2D54E5080A7
:100333006C447CB8222C4450120B1C7E40005E504F
:100343007FBE18000078040B806816A2D57CB81312
:100353007C4B7CB592E77C5B227E1CFFFF229F11C6
:10036300227E24FF8020D5026C456D332274F86C05
:10037300AA6E40806E0080BEB0FF68277C837C97A6
:100383005C3B5C7BBF10682AF4400D7C382D15F470
:100393005C3B500F0B04800B7C792D35F45C7B5058
:1003A300020B24BF10680B7CB020E7067CB420E767
:1003B30001B322540F2490D43440D430F30CBEB094
:1003C300414007BEB05B500224204CCC68021BC0E6
:1003D3000B84D389944CCC680B74201203CD80F525
:1003E300CA3B6D889F337CAE7E5BB00B5C7007C3EA
:1003F3007D38DA3B8994B42569C2F37E5BB00B5C2C
:10040300A5F824D0BEB00A501B7E500A20F60DACCE
:100413005CA52D7CCB70034EF00180DDAC5DA52D7A
:100423007CDB80D524CFBEB01AA5E850055E00DF83
:10043300D2F39007B8A3E4936011BCB078F77417B4
:10044300934CAB30F6B34EF08080AEA3E4936010D0
:10045300BCB078F77416937C3B7423937C2B89147C
:100463007CB0801374201203CD20F205BEC002506D
:10047300F31B6D29B600011203CD0203D81B6E696D
:100483001600020B6A00BE08000078087E0400FF15
:100493007E14000720F21E4CCC681A7F10E47E1BEA
:1004A300804C8868070B1C04BCBD78F2C2F6CA0BEB
:1004B3001205B7DA0B7E0BB060C0CA0B1203CDDA9C
:1004C3000B0B0C4CDD68EE1BD078EA80ADD2F07ECE
:1004D300101080037E10085EB05F800AD2F67E1093
:1004E3000A80057E100AC2F66D119F117E00201B43
:1004F3006C7E6B7030F6021A3720F1051B6C7E6B35
:100503006030F6041A261A2430F0051B6D0B6A209E
:10051300A5EC3382F692F6500A7CEA9F229F217F54
:10052300127CAE4C44780F7C457C567C676C772EEE
:1005330000F878EF80122F117CB3337C3B9CB140E1
:10054300047C3B0B70A5D8EE7CB230E005DAB8C46E
:100553004C3BCA380B207E00207E3000BE180000C2
:1005630078C1BE1008780730F404C2F480B5CA28F5
:100573007CB2BCBD38027CBD1205B7DA28BC2D5055
:100583000A1BD0E4CA281203B680F07CB213DAB88F
:100593004004C4CAB8C4CA28BEF08040095CDD78F0
:1005A30005A5DA0260065EF07F1203B6DA28A5DA43
:1005B300DA0203D8BEF001680F30F402240220F5FA
:1005C3000620F70330F6010420F229BCBC5025CAEB
:1005D300B87CBF13B0E67420501174307C8A5E80FF
:1005E300F068081205F75EA00F80031203CDDAB896
:1005F300BCBC78DB30F40F74301203CD745830F385
:100603000274781203CD30F605742D0203CD742BDA
:1006130020F5F8742020F7F3221B6C7E6BB010F1E9
:10062300021B6C20F60B30E704F404D2F27CCB807F
:100633000520E7057CDB0203FC5EF07F80F81B6E80
:10064300691600020B6A0030F0076D221B0A200BAB
:100653000D1B0A800203E7E46C22BE3007500B7FB8
:100663001F2D312E34FFF77E39B0227CBF20E7A83F
:10067300742E4EF0800203CD1207A1403D7CBD7065
:1006830003047CDB1209AA7C3D4C3368101B307CCD
:10069300BE20E40912065A70044C3378F07CBD7C0A
:1006A300D3BEA0FD481CBCAB5818E49CBA2CB318AD
:1006B30001E47CDB0207421207A1406E7CBD0412F9
:1006C30009AA7AFBA07CAE7CBDA2F492F0C2F440EE
:1006D3000260010424051205B77E30FF0B301206B9
:1006E3005ACA381203B620F0044CDD680312066EB2
:1006F300DA38BC3D78E6740E1203B6742B7EFBA089
:1007030030F707742D6EA0FF0BA07AFBA01203CD68
:100713007EA00A7EFBB0847AFBA01203B67EFBB0F8
:100723001203B69EF800080203D8D2F27ED000026C
:1007330004971207A140F37CBA2CBD041209AA7ACC
:10074300FBA07CBA7CAE30E701E40420F4044CDD6A
:100753006805D2F0C2F4042CBD1205B76C337EFBDE
:10076300B0601B20E712147AFBB012065ACA381283
:1007730003B6DA380B3080E6047AFBB01B3012067E
:100783005ACA381203B64CDD680712066E1BD080B6
:10079300E19EF8000930F00312066E0203D87CEAEA
:1007A3007CAF10F7037ED0067CFA1B6E693600021D
:1007B3000B6A200208F22D2B204C4248232E0053B3
:1007C300584F44494355502A4E464547000420801C
:1007D300010200104080D2D7DFDF6CE6D01C413528
:1007E300BA7B04040404040404040606070606BED4
:1007F3001249253E4CCCCDBEAAAAAB3F8000003E99
:100803007ADBB03EED63383F24BC7D3F490FDB7D8F
:10081300C25E407FBE247F804010680302035C7E7B
:10082300340FDB7E243FC90208D65EC480007D52AC
:100833002D55BEA07F401378049420400D7F017E88
:10084300243F806D331202040BC47CB5337CB43374
:10085300248430E7046DDD803E047CAB7CB5D2E7B5
:1008630054F0C333D5F0FC5407340023230ADB7F51
:10087300417F017C4BE412028F1B417F71120164A3
:100883007E043F806D111200AC7F077F717F1412CD
:1008930000A97F071202047F717E9407F27E840011
:1008A300FF74031209ED7F071201645DDD68147E96
:1008B3005407FE7E4400FF2D5D0B2A0069120002DF
:1008C3001200AC7D5C30E00B7E04BFC97E140FDBED
:1008D3001200AC5D2268095E407F5EC480004D2C2F
:1008E300224E614E002B494E46002D494E46007D57
:1008F300522D557CBE92E67CEB7CBA601F047028B7
:100903007CB5C2E77E0400FF60067E1408E4D322B0
:100913007E1408ED40047E1408E8D322DA099F22EE
:10092300CA2BCA2BC3CA09220A0A7E144D10AD1062
:100933009E083AF09E10267CB5C2E77EA0567C9BAB
:10094300A46E54FFFF2E54C511ACA92D15E4A5398F
:10095300CAB8CA1B20E70A120A4ADA1B1202048029
:100963000AF404120A4ADA1B120164DAA87CB533CA
:100973007CB4334E50806C4424822F111478FBDAFC
:10098300497407BE400A40099E400ACA0201140B7B
:10099300A0CA486C442F117F012F112F112F10145F
:1009A30078EFCA48CA49227F0F20E73ABEB0074012
:1009B3000274070A0B2D109E1400097E19B02EB085
:1009C300FB501F4C116817E47A19B01B147E19B041
:1009D300047A19B0B40A0BE47A19B0A5D9ED0BA0C7
:1009E30074017A19B0225EE0BF22CAB87F011201F6
:1009F30064DAB87F510B4A20693400020B4E7F053D
:100A0300CAB81201640B4A00691400020B4E1200AB
:100A1300ACDAB81478E8223F80000041200000429D
:100A2300C80000447A0000461C400047C3500049F8
:100A33007424004B1896804CBEBC205A0E1BCA6708
:100A430053C21C749DC5AE7C7B6006540768162395
:100A530023120A6F7CB75438680A7F10120A6C128B
:100A630001647F01227CB7543803241C6CAA2E54E2
:100A73000A1A7E4400FF0B2A006912000222C2D523
:100A83007CB430E708B2D56E24FFFF0B247CB6306C
:100A9300E712B2D56E34FFFF0B348D326E24FFFFA5
:100AA3000B2480028D3230D5066E34FFFF0B3422C7
:100AB3007D02AD31AD102D21226D0074104D0078F3
:100AC3000B4D2278278D317D126D22227D437D329D
:100AD3006D222F112D445002A50FBF1040049F100B
:100AE3000B901478ED7F016D227D34227D417D13BF
:100AF3008D247D022F004004BD0440049D040B148B
:100B03001478F17D237D317D106D0022C2D57CB038
:100B130030E708B2D59F229F207F027CB430E713D1
:100B2300B2D59F229F217F12120ABE9F229F207F50
:100B3300028003120ABE30D5069F229F217F122214
:100B43006CAABE08000068201E540B5450167E1B6E
:100B5300807A0B800B1C0B0C800A0B1A401B0A407B
:100B63000B1D0B0D1B5478F222CA791211AD9000A4
:100B7300860BEA70BE740001780612133D020F5E05
:100B83009000880BEA10BE140001783690008E0B9B
:100B9300EA004D00782C4D77782890009C0BEA00F2
:100BA3004D00781E7E04FF6A9000821BEA007E04DB
:100BB300000190009C1BEA007E0400969000A602B0
:100BC3000E579000B40BEA40BE440005582C900029
:100BD300BA0BEA00BE040005582090009C0BEA0003
:100BE300BE04000178149000A40BEA004D00780ABB
:100BF3007E0400019000A4020E579000A40BEA00AB
:100C0300BE04000178779000AE0BEA504D55786D25
:100C130090009C0BEA50BE54000178619000B60B23
:100C2300EA509000840BEAF07D2F9D257E3400DC92
:100C3300AD327D2F2D25120A819000821BEA307E72
:100C43005400969000A61BEA509000BA0BEA50BEDF
:100C53005400121803020F5EBEF400121803020FB1
:100C63005E7E5400019000AE1BEA506D559000B8B3
:100C73001BEA507E5400B49000A6020E98BE0400F6
:100C830001785F9000AE0BEA50BE54000178539098
:100C9300009C0BEA50BE54000178479000B60BEA63
:100CA300F09000840BEA507D259D2F7E3400DCAD4F
:100CB300327D252D2F120A819000821BEA307E544B
:100CC30000B49000A61BEA506D559000881BEA50B3
:100CD30090009C1BEA509000A41BEA509000AE02C7
:100CE3000E98BE140001782E90008E0BEA50BE546D
:100CF300000178224D77781E9000980BEA504D55ED
:100D030078147E5400B49000821BEA507E54000194
:100D1300900098020E98BE44000558269000BA0B26
:100D2300EA50BE540005581A9000980BEA50BE547E
:100D33000001780E4D00780A7E5400019000A40251
:100D43000E98BE04000178679000AE0BEA504D5533
:100D5300785D9000980BEA50BE54000178519000E2
:100D6300B60BEAF09000840BEA507D259D2F7E346C
:100D730000C8AD327D252D2F120A819000821BEA17
:100D8300307E5400B49000A61BEA50BEF400121843
:100D930003020F5EBE4400121803020F5E7E54006E
:100DA300019000AE1BEA506D559000B8020E98BE3C
:100DB300040001786A9000AE0BEA00BE04000178DB
:100DC3005E9000980BEA00BE04000178529000B6D2
:100DD3000BEA509000840BEA007D209D257E3400B1
:100DE300C8AD327D202D25120A819000821BEA3086
:100DF3007E0400B49000A61BEA006D009000881BDF
:100E0300EA0090009C1BEA009000981BEA00900007
:100E1300A41BEA009000AE1BEA0090008E80359080
:100E230000A20BEA504D5578319000840BEA00BEC6
:100E330004005A08259000B60BEA00BE04005008CF
:100E4300199000BA0BEA00BE040019580D7E040085
:100E5300019000A21BEA00020F5E9000840BEA00DF
:100E6300BE04005C08359000B60BEA30BE34004681
:100E730008294D777825BE540001781F9000BA0BDE
:100E8300EA50BE54002D08137E5400019000861BC7
:100E9300EA5090008A1BEA50020F5E9000BA0BEAF8
:100EA30050BE54000F083ABE04003258349000B6C6
:100EB3000BEA50BE5400325828BE44000F08224D9E
:100EC30077781E4D11781A9000AE0BEA304D3378C7
:100ED300107E3400019000881BEA307E3400648069
:100EE300744D7778764D117872BE040005581090D2
:100EF30000B60BEA10BE14000558046D11802DBE18
:100F030004000F082F9000B60BEA10BE14000F0860
:100F1300237D209D217E34008CAD327D202D211236
:100F23000A819000821BEA307E1400FA9000A61B0F
:100F3300EA1080279000B60BEA107D209D217E34B5
:100F4300014AAD327D202D21120A819000821BEAD5
:100F5300307E3400C89000A61BEA309000820BEA72
:100F630030BE340096080A7E3400969000821BEA55
:100F7300309000820BEA30BE34FF6A580A7E34FF99
:100F83006A9000821BEA309000820BEA00BE0400E4
:100F930000581D7E2400027D30120A819000A60BAA
:100FA300EA102D319000B01BEA309000B21BEA101A
:100FB300BE04000008219000A60BEA109000B01BAD
:100FC300EA107E2400027D30120A817D237D319D4B
:100FD300329000B21BEA30DA7922CA3B7F309000AC
:100FE300017AEB70900000F0E4900002F0900003AF
:100FF300F07E3400019000041BEA30021198E49063
:101003000002F07E3400019000041BEA308052900D
:101013000002E00A3B6D227F012E0400FF2E082010
:10102300DE7E0BA0900003E00A1B2D177D067E0BCE
:10103300B0BCAB78252E2400FF2E1820DF7E1B606A
:1010430029700001BC6778129000027EEB70740E69
:10105300ACB79000041BEA50801F900002E00BB174
:10106300F0900002E00A3B6D222E2400FF2E182090
:10107300DE7E1B70BE707F3896900000E0BEB076B7
:10108300280BE4900000F0900001E004F0900000D1
:10109300E09000017EEB70121CA69000040BEA3076
:1010A300BE3400017803021136900000E090000185
:1010B3007EEB70121CA6E4900002F09000040BEA91
:1010C300306D222E2400FF2E181DEA7E1BB0121C49
:1010D300819000040BEA300B341BEA30900002E0ED
:1010E30004F0900002E0B40ED2900001E00A3B0B42
:1010F300349000067AEB70900000E0121CA6E49096
:101103000002F09000040BEA306D222E2400FF2E23
:10111300181DEA7E1BB0121C819000040BEA300BF1
:10112300341BEA30900002E004F0900002E0B40EB9
:10113300D28054900003E004F0900000E09000019E
:101143007EEB70121CA6E4900002F0E4121C819066
:101153000002E004F0900002E0B410EF900001E020
:101163000A3B0B349000067AEB70900000E0121CEF
:10117300A6E4900002F0E4121C81900002E004F067
:10118300900002E0B410EF900000E0240EF0900015
:1011930003E00BB1F0900003E00A3B2D377D267E80
:1011A3001BB06003021001DA3B227408121C2C7A74
:1011B30035087409121C2C7A350A740A121C2C7A0D
:1011C300350C740B121C2C7DE37A350E7E2508E456
:1011D30012028A6DDD7EC442C87F061200A97EB466
:1011E30080007EA445097F051202047F0612016474
:1011F3001202C27DF39000BA1BEA307E250AE41284
:10120300028A7F061200A97F051202047F061201DB
:10121300641202C29000841BEA307E250CE41202A1
:101223008A7F061200A97F051202047F0612016459
:101233001202C29000B61BEA307D2EE412028A7FAE
:10124300061200A97F051202047F0612016412022E
:10125300C29000B41BEA30BEF4000058046D338022
:10126300069000BA0BEA309000BA1BEA309000BA3D
:101273000BEA30BE34006408067E340064800690B6
:1012830000BA0BEA309000BA1BEA309000B60BEAC2
:1012930030BE34000058046D3380069000B60BEA6C
:1012A300309000B61BEA309000B60BEA30BE340033
:1012B3006408067E34006480069000B60BEA309022
:1012C30000B61BEA309000840BEA30BE34000058AD
:1012D300046D3380069000840BEA309000841BEA8F
:1012E300309000840BEA30BE34006408067E34007C
:1012F3006480069000840BEA309000841BEA3090EF
:1013030000B40BEA30BE34000058046D33800690FD
:1013130000B40BEA309000B41BEA309000B40BEA3F
:1013230030BE34006408067E34006480069000B446
:101333000BEA309000B41BEA302290008A0BEA10CB
:10134300BE140001782B9000B40BEA509000BA0B46
:10135300EA007D209D257E340190AD327D202D2530
:10136300120A819000821BEA306D009000A61BEAEE
:10137300009000B40BEA00BE04001458269000B697
:101383000BEA00BE04001E581ABE14000178147E36
:101393003400019000A01BEA306D3390008A1BEAF1
:1013A3003080379000A00BEA30BE340001782B90D8
:1013B30000B60BEA509000840BEA007D209D257E49
:1013C3001400C87D32AD317D202D25120A81900095
:1013D300821BEA309000A61BEA109000A00BEA30B3
:1013E300BE340001782A9000BA0BEA30BE340050B4
:1013F300081E9000840BEA30BE34005008127E347D
:10140300000190008C1BEA306D339000B81BEA306A
:1014130090008C0BEA30BE340001785F9000B60B6D
:10142300EA009000840BEA107D219D207E34011890
:10143300AD327D212D20120A819000821BEA307E7D
:101443000400DC9000A61BEA009000BA0BEA00BE81
:1014530004003C5826BE14003C58206D339000868F
:101463001BEA309000A01BEA3090008C1BEA3090FE
:1014730000B81BEA309000A81BEA30229000BA0B98
:10148300EA309000441BEA309000B40BEA3090003D
:10149300421BEA307E1400007E0400017E342E7E5F
:1014A3007E2400FF1202FFE46C777E1400007E04AA
:1014B30000011217709000840BEA309000441BEA7D
:1014C300309000B60BEA309000421BEA307E1400E5
:1014D300007E0400017E342E6E7E2400FF1202FF84
:1014E300E47E70017E1400007E04000112177090E8
:1014F300009A0BEA309000441BEA3090009E0BEAFE
:10150300309000421BEA307E1400007E0400017E0E
:10151300342E627E2400FF1202FFE47E70027E14EA
:1015230000007E0400011217709000B00BEA3090A7
:1015330000441BEA309000B20BEA309000421BEAF1
:10154300307E1400007E0400017E342E537E24007E
:10155300FF1202FFE47E70037E1400007E0400018C
:101563001217709000820BEA309000441BEA307E21
:101573001400007E0400017E342E4C7E2400FF12F2
:1015830002FFE47E70047E1400007E040001021753
:1015930070CAF87DF3439B8074027E34FEF17E248F
:1015A300007E7A1BB0E47E14FEEC7E04007E7A0B90
:1015B300B07E34FEED7A1BB07EF0607E54FEE87E92
:1015C30044007E7A2BF07E54FEE97A2BF07E54FEA3
:1015D300EA7A2BF07E54FEEB7A2BF074557A0BB03B
:1015E3007A1BB07D1F6D007E3496807E2400981296
:1015F3000B0F7E14FEF27E04007E7A0B607C377E36
:1016030034FEF37E24007E7A1B3074647E34FEF550
:101613007A1BB074C87E34FEF67A1BB074647E34D1
:10162300FEF97A1BB074C87E34FEFA7A1BB0E47EEE
:1016330034FEB57A1BB07E1BB044017A1BB07E1B0F
:10164300B044107A1BB0E47E34FEB67A1BB07E1B26
:10165300B044037A1BB07E1BB044307A1BB0748055
:101663007E34FEFD7A1BB07E34FEE07E1BB0440167
:101673007A1BB075D20075D3A07E34FE177E1BB0E3
:1016830044A07A1BB0539B7FDAF8221B3468381BC3
:101693003468561B3468711B34780302172A0B36DF
:1016A300680302176F4D227803C2A022BE240001F3
:1016B3007803D2A022BE240002680302176F30A071
:1016C30003C2A022D2A0224D227803C2A122BE24AB
:1016D30000017803D2A122BE240002680302176F1F
:1016E30030A103C2A122D2A1224D227803C2C22279
:1016F300BE2400017803D2C222BE240002786D30DA
:10170300C203C2C222D2C2224D227803C2EA22BE3F
:101713002400017803D2EA22BE240002784E30EA84
:1017230003C2EA22D2EA224D227809C2A0C2A1C290
:10173300C2C2EA22BE2400017809D2A0D2A1D2C239
:10174300D2EA22BE240002782330A004C2A0800281
:10175300D2A030A104C2A18002D2A130C204C2C26D
:101763008002D2C230EA03C2EA22D2EA22CA3B7F13
:101773003090001F7AEB7090001EF0E4900020F090
:10178300900021F0900022F0807E900022E00A3B3E
:101793002D377D267E1B701A579E54002090002003
:1017A300F090001EE0BEB07E280BE490001EF09087
:1017B300001FE004F090001EE090001F7EEB70120B
:1017C3001CA6E4900021F0900020E00A3B6D227EED
:1017D300140006120AB3900021E00A1B6D002F10BB
:1017E3002E2400FF2E1821157E1BB0121C819000A1
:1017F30021E004F0900021E0B406CC90001EE02428
:1018030006F0900022E004F0900022E00A3B2D371E
:101813007D267E1BB0600302178DDA3B2253EEE078
:10182300E5EEF5EE53EFE0E5EFF5EFD2ECC2EA7E3D
:10183300340032121D77D2EA74AE121C5CE4121C1F
:101843005C7410121C5C7440121C5C7481121C5C6E
:1018530074CF121C5C74A1121C5C74C8121C5C74DF
:10186300A6121C5C74A8121C5C743F121C5C74D31B
:10187300121C5CE4121C5C74D5121C5C7480121C78
:101883005C74D9121C5C74F1121C5C74DA121C5C5B
:101893007412121C5C74DB121C5C7440121C5C74AA
:1018A30020121C5C7402121C5C748D121C5C741478
:1018B300121C5C74A4121C5C74A6121C5C74AF1220
:1018C3001C5C120026E46C77021CA67DF3439B800C
:1018D300741D7E34FED17E24007E7A1BB0E47E34F8
:1018E300FECD7A1BB074607E14FECB7E04007E7A3C
:1018F3000BB074557A1BB07D1F6D007E3442407E61
:1019030024000F120B0F7E14FED27E04007E7A0B8E
:10191300607C377E34FED37E24007E7A1B307405D0
:101923007E34FEDB7A1BB074B97E34FEDC7A1BB0E6
:101933007E34FEB17E1BB044807A1BB07E14FEB2AF
:101943007E0B707A0B7074807E34FEDD7A1BB07E62
:1019530034FEC07E1BB044017A1BB0539B7F227DB3
:10196300027D53BE54000058216E54FFFF0B5443B5
:101973009B801A1A7E34FEF57E24007E7A1B307E0D
:1019830034FEF67A1BB0D2FD8019439B801A1A7E6F
:1019930034FEF57E24007E7A1B307E34FEF67A1BFD
:1019A300B0C2FD539B7FBE04000058216E04FFFFAD
:1019B3000B04439B801A107E34FEF97E24007E7A4A
:1019C3001B307E34FEFA7A1B10D2FF8019439B80B2
:1019D3001A107E34FEF97E24007E7A1B307E34FE9C
:1019E300FA7A1B10C2FF539B7F22CA7BCA6BCA5B66
:1019F300CA4BCA2BCA1BCA0BC0D1C0D0C083C0827A
:101A03007401121A5190009A1BEA307402121A518F
:101A130090009E1BEA30120B6C9000820BEA207E32
:101A23003405B99D32121CE69000B00BEA309000E9
:101A3300B20BEA20121962D082D083D0D0D0D1DA8F
:101A43000BDA1BDA2BDA4BDA5BDA6BDA7B327C5B91
:101A53006D33A5BD0128308708E5C97C4B6C5580E3
:101A63000AE5C97C6B6C776D229D23E5CA0A3B4D61
:101A73003253DB7F75C90075CA0043DB8022A5BDE5
:101A83000227308508E5CB7C4B6C55800AE5CB7C7F
:101A93006B6C776D229D23E5CC0A3B4D3253DBF70C
:101AA30075CB0075CC0043DB0822759200439B8005
:101AB30075A901E47E34FE017E24007E7A1BB053B7
:101AC3009B7F43FF1075F14075F20074407E34FE36
:101AD300107A1BB075F30075F40075F90075FA0000
:101AE30075FB0075FC0075EC0075ED0074FF7E342A
:101AF300FE177A1BB0C2C0C2AF227584017E4404B4
:101B03001FE47A49B01B4478F97EF8000F7E040085
:101B1300FF7E142C6D0B0A405D446822295000029D
:101B23000A25693000032E0800050B44800A7E0B4A
:101B3300B07A1BB00B1C0B0C1B4478F280D7021B32
:101B430044121AAD121820E47E70027E142EE27E37
:101B53000400FF120FDD7E3400C8121D77121DA191
:101B63007E3430D41215947E3400641218CE121DC4
:101B730001121D8E120066121CC9120026D2AF126A
:101B8300147F80FBCA59CA39C0D1C083C082E5BC67
:101B930030E01753BCFEE5BD0A3B9000471BEA301B
:101BA3009000470BEA50900046F0E5BC30E1035348
:101BB300BCFDD082D083D0D1DA39DA5932CA7BCA9C
:101BC3006BCA5BCA4BCA2BCA1BCA0BC0D1C0D0C0DD
:101BD30083C0826D337E24000212168ED082D0839E
:101BE300D0D0D0D1DA0BDA1BDA2BDA4BDA5BDA6B33
:101BF300DA7B32CA7BCA6BCA5BCA4BCA2BCA1BCA03
:101C03000BC0D1C0D0C083C0826D337E24000212CA
:101C1300168ED082D083D0D0D0D1DA0BDA1BDA2B58
:101C2300DA4BDA5BDA6BDA7B3275DD0075DE005393
:101C3300DCF07EA1DC4EA0404CBAF5DC00000000D5
:101C4300E5DC30E5FB53DCDFE5DD540F0A3B7C4B81
:101C53006C55E5DE0A3B4D32227C7B7E6008C2E98F
:101C6300C2EC80117CB730E704D2EB8002C2EBD226
:101C7300ECC2EC3E707CA61B604CAA78E7227C7B0E
:101C83007E6008D2E9C2EC80117CB730E704D2EB66
:101C93008002C2EBD2ECC2EC3E707CA61B604CAA65
:101CA30078E722CAF87CFB0A572E5400B0121C5C5A
:101CB3007CBF54F0C4540F4410121C5C7CBF540FFF
:101CC300121C5CDAF822C28ED2AB5389CFE589F5B8
:101CD300895389BF5395FD5393BF758DCF758B2C56
:101CE300D28E227D03439B807E34FEDB7E24007EE6
:101CF3007A1B007E34FEDC7A1B10539B7F22439BAE
:101D030080743F7E34FEAB7E24007E7A1BB0539BEF
:101D13007F43DF2F75DC8022CAB8C0D1C083C08265
:101D23009000F6E004F0D082D083D0D1DAB832CA82
:101D3300B8C0D1C083C0829000F7E004F0D082D055
:101D430083D0D1DAB832CAB8C0D1C083C082900080
:101D5300F9E004F0D082D083D0D1DAB832CAB8C067
:101D6300D1C083C0829000FAE004F0D082D083D047
:101D7300D1DAB8327D237E3413887D131B147D3171
:101D830078F87D121B147D2178EC2275CC0075CB7D
:101D93000043DB0C75CA0075C90043DBC02253D274
:101DA300F0E5D2F5D253D3F0E5D3F5D322C0D13049
:101DB3009802C298309902C299D0D132434E543A14
:101DC3002530336420004C5120652D6D6F746F7284
:101DD3006379636C6500B1B1BEA9C1FAC7F1D6C717
:101DE300C4DCBFC6BCBC0020202020FE000000FED7
:101DF3008040201000101008047F0000003F404086
:101E03004070000808E828282A2C282828E8080811
:101E1300000020130A42427E02020A13200000003F
:101E2300F090909090FE90909090F00000000F043E
:101E33000404043F44444444477000808282828205
:101E430082C2A2928A868280000000000040407F06
:101E530000000000000000404848F8444420C41833
:101E630000FE0000000804037F0204020202027F56
:101E73000101001010FE1000909090FE9090100051
:101E83000042427F014040231408142340400004D1
:101E9300FC2424FC0400FC040404FC0000101F11B7
:101EA300097F08403302020213600010608000FEC5
:101EB300000000FE0080700000404043407F40402F
:101EC300407F4241404000701092949092949098C9
:101ED30094121070000404040444447E06050404B0
:101EE300040400FC04649C001848484A4C48481801
:101EF300007F0808074022120E02023E42620020C1
:101F0300202020A07E20E0242820A02000402010B4
:101F13000C2320103F44424140700000FC444444E1
:101F2300C24200FC0444B40C00101F1010080F0838
:101F3300007F0010100F0028A6643C64A420FC84DA
:101F43008484FC000001007E2A2A2A2A2A2A2A7E67
:101F530000000010989492909830003E48484474D2
:101F630000007F0A0A4A7F00003F44444271001088
:101F730090FE901000FC040404FC00000002017FAA
:101F83000041300F0000003F407000809E9292920B
:101F93009EC09E92B2D29E8000047C4A4A49780039
:101FA30078494A4A7C04000000000000807E8000DB
:101FB3000000000000404020100C0300030C102020
:101FC3004040004042CC00846C544CD444524E02F6
:101FD3000040201F20425A52525F52525A42001070
:101FE30010FE100098482A0C082848980042427FA7
:101FF30001004042427E4242424000809E929292C1
:102003009EC09E92B2D29E8000047C4A4A497800C8
:1020130078494A4A7C04001010FE10504858EA4C94
:10202300685848400042427F01424A2E13122A2632
:1020330042020000F80000FE004020DE1010F01005
:1020430000000702017F004020170816214000000E
:10205300302C20A0702E202020242820001008449B
:10206300424127291129254340400080849800805C
:10207300929490F0909492800040201F204050480A
:10208300464142445840001010FE1000B88888EAC8
:102093008C8888B80042427F010040442718081406
:1020A3002340002050CE4800C8B820A8FEA8F8203E
:1020B3000002023F5228102F204A7F4A4A4800005C
:1020C300000080800000000000000000000000000D
:1020D3001919000000000000000000B1B1BEA9B54D
:1020E300E7D7D3BFC6BCBCD6B0D2B5D1A7D4BAC18B
:1020F300FAC7F1D6C7C4DCBBFAC6F7C8CBD2A3BFB5
:10210300D8C6F7BDD3CAD5B7A2CBCDB0B4BCFCA358
:10211300BA000000000000000000002F00000000D3
:102123000700070000147F147F1400242A7F2A125B
:10213300006264081323003649552250000005034A
:10214300000000001C224100000041221C0000147A
:10215300083E08140008083E0808000000A06000BC
:10216300000808080808000060600000002010084C
:102173000402003E5149453E0000427F40000042B8
:1021830061514946002141454B31001814127F101B
:10219300002745454539003C4A494930000171094A
:1021A300050300364949493600064949291E0000FE
:1021B30036360000000056360000000814224100A5
:1021C30000141414141400004122140800020151D5
:1021D300090600324959513E007C1211127C007FDE
:1021E30049494936003E41414122007F4141221C79
:1021F300007F49494941007F09090901003E4149DE
:10220300497A007F0808087F0000417F41000020D1
:1022130040413F01007F08142241007F404040407D
:10222300007F020C027F007F0408107F003E4141C3
:10223300413E007F09090906003E4151215E007FAE
:10224300091929460046494949310001017F010125
:10225300003F4040403F001F2040201F003F4038C8
:10226300403F006314081463000708700807006107
:102273005149454300007F41410000552A552A55E5
:10228300000041417F00000402010204004040407D
:102293004040000001020400002054545478007FA1
:1022A3004844443800384444442000384444487F78
:1022B30000385454541800087E0901020018A4A4DD
:1022C300A47C007F080404780000447D40000040A3
:1022D30080847D00007F102844000000417F40007F
:1022E300007C04180478007C080404780038444413
:1022F300443800FC242424180018242418FC007CEF
:102303000804040800485454542000043F44402067
:10231300003C4040207C001C2040201C003C4030FE
:10232300403C004428102844001CA0A0A07C00448A
:1023330064544C44141414141414000000000000DA
:1023430000000000000000000000000000F8000092
:102353000000000000333000000000100C06100CD9
:102363000600000000000000000040C07840C07874
:102373004000043F04043F040400007088FC08305C
:102383000000001820FF211E0000F008F000E018F4
:10239300000000211C031E211E0000F008887000AD
:1023A30000001E2123241927211010160E000000FF
:1023B30000000000000000000000000000E018041E
:1023C3000200000000071820400000020418E0008B
:1023D30000000040201807000000404080F08040CB
:1023E30040000202010F01020200000000F00000A1
:1023F30000000101011F01010100000000000000B5
:10240300000080B070000000000000000000000029
:1024130000000001010101010101000000000000B2
:102423000000003030000000000000000000806069
:102433001804006018060100000000E010080810EE
:10244300E000000F102020100F00001010F8000013
:1024530000000020203F20200000007008080888AA
:10246300700000302824222130000030088888487A
:1024730030000018202020110E000000C02010F8AA
:10248300000000070424243F240000F8088888087B
:1024930008000019212020110E0000E01088881880
:1024A3000000000F112020110E0000380808C83862
:1024B30008000000003F0000000000708808088842
:1024C3007000001C222121221C0000E010080810CB
:1024D300E0000000312222110F00000000C0C00004
:1024E3000000000000303000000000000080000009
:1024F3000000000080600000000000008040201009
:102503000800000102040810200040404040404001
:102513004000040404040404040000081020408064
:102523000000002010080402010000704808080899
:10253300F0000000003036010000C030C828E81069
:10254300E0000718272423140B000000C038E00024
:102553000000203C23020227382008F8888888706E
:102563000000203F202020110E00C030080808087A
:102573003800071820202010080008F80808081061
:10258300E000203F202020100F0008F88888E8088A
:102593001000203F20202320180008F88888E8082E
:1025A3001000203F200003000000C0300808083856
:1025B300000007182020221E020008F80800000867
:1025C300F808203F210101213F20000808F80808EE
:1025D30000000020203F2020000000000808F80829
:1025E3000800C08080807F00000008F888C0281899
:1025F3000800203F20012638200008F808000000CA
:102603000000203F20202020300008F8F800F8F8D0
:102613000800203F003F003F200008F830C00008BA
:10262300F808203F200007183F00E01008080810B2
:10263300E0000F10202020100F0008F808080808F9
:10264300F000203F210101010000E01008080810FC
:10265300E0000F18242438504F0008F88888888831
:102663007000203F2000030C302000708808080809
:1026730038000038202121221C00180808F8080817
:1026830018000000203F2000000008F808000008A0
:10269300F808001F202020201F000878880000C8A9
:1026A3003808000007380E010000F80800F8000899
:1026B300F800033C0700073C0300081868808068A3
:1026C300180820302C03032C30200838C800C838E1
:1026D30008000000203F2000000010080808C83848
:1026E30008002038262120201800000000FE0202E6
:1026F30002000000007F40404000000C30C000009A
:102703000000000000010638C00000020202FE00C3
:102713000000004040407F0000000000040202026D
:1027230004000000000000000000000000000000A2
:10273300000080808080808080800002020400008E
:102743000000000000000000000000008080808086
:1027530000000019242222223F2008F80080800074
:102763000000003F112020110E0000000080808037
:102773000000000E1120202011000000008080883E
:10278300F800000E112020103F2000008080808080
:102793000000001F222222221300008080F088887C
:1027A30088180020203F20200000000080808080C7
:1027B3008000006B94949493600008F800808080FC
:1027C3000000203F210000203F2000809898000057
:1027D30000000020203F2020000000000080989887
:1027E300000000C08080807F000008F80000808027
:1027F3008000203F24022D302000000808F800004C
:1028030000000020203F2020000080808080808006
:102813008000203F20003F20003F80800080808098
:102823000000203F210000203F20000080808080A6
:102833000000001F202020201F00808000808000D7
:10284300000080FFA12020110E0000000080808086
:102853008000000E112020A0FF80808080008080F7
:10286300800020203F212000010000008080808024
:1028730080000033242424241900008080E0808019
:1028830000000000001F2020000080800000008066
:102893008000001F202020103F20808080000080C7
:1028A300808000010E3008060100808000800080D7
:1028B30080800F300C030C300F000080800080807C
:1028C30080000020312E0E312000808080000080A7
:1028D300808080818E701806010000808080808057
:1028E30080000021302C2221300000000000807C79
:1028F300020200000000003F404000000000FF0013
:10290300000000000000FF0000000002027C8000C5
:1029130000000040403F00000000000601010202E9
:10292300040400000000000000000000000000009C
:102933000000000000000000000000000000000094
:102943000000000000000000000000000000000084
:10295300000000003F3F3F3F3FC0C0C0C0C0000079
:102963000000000000000000000000000000000064
:102973000000000000000000000000000000000054
:102983000000000000000000000000000000000044
:102993000000000080C0E0E0F0F0F0F00000000074
:1029A30000F0F0F0F0F0F0F0F0F0F0F0F0F0F0F014
:1029B300F0F0F0F0F0F0F0F0F0F0F0F0F0F0F0F014
:1029C300F0070707070700000000000000000000F1
:1029D300E0F0F0F0000000000060E0E0C000000064
:1029E300000000C0E0E0E0606060607070303000C4
:1029F300E0E0E0E02060E0E0E040F0FEFFFFFFFF0A
:102A0300FFFFFFFF0000000000FFFFFFFFFFFFFFCE
:102A1300FFFF1F1F1F1F1F1F1F1F1F1F1F1F1F1F03
:102A23001F1F1F1F1FFFFFFFFFFEFEFEFEFE000016
:102A3300000606060606C6FEFFFF1F070606FEFE85
:102A4300FE06060686C66606000000FFFFFFFF308F
:102A530030F0F0F0F0303000FFFFFFFF4078FFFF71
:102A6300FF80FFFFFFFFFFFFFFFFFFFF00000000EE
:102A730000FFFFFFFFFFFFFFFFFF0000000000005C
:102A830000000000000000000000000000FFFFFF46
:102A9300FFFFFFFFFFFF0000000000C0F0FEFF3F4D
:102AA3000780C0C06070FFFFFF0E07030100000036
:102AB300000000FFFFFFFF0000FFFFFFFF0000001B
:102AC300FFFFFFFF0000FFFFFFFFFFFFFFFFFFFF11
:102AD300FFFFFFFF0000000000FFFFFFFFFFFFFFFE
:102AE300FFFF0000000000000000000000000000E5
:102AF3000000000080FFFFFFFFFFFFFFFFFF00005C
:102B030000040F0F07030000030101000000070F7B
:102B13000F0E0C0C0C0C0C0C000004070707070627
:102B23000203030303030300070F0F070303030356
:102B33000100FFFFFFFFFFFFFFFFFFFF000000009B
:102B430000FFFFFFFFFFFFFFFFFFFFFFFFFFFFFF91
:102B5300FFFFFFFFFFFFFFFFFFFFFFFFFFFFFFFF82
:102B6300FFFFFFFFFFFF000000424242FEFEFFE7C0
:102B730043434100061E3E3C3000FFFFFFFF0000C1
:102B830000004040FFFFFFFF400008080808080856
:102B9300FFFFFFFF0808080808087FFFFFFFFFFF8C
:102BA300FFFFFFFFC0C0C0C0C0C1C1C1C1C1C1C11F
:102BB300C1C1C1C1C1C1C1C1C1C1C1C1C1C1C101C2
:102BC3000101010101FFFFFFFFFFFFFFFFFF000006
:102BD30000FFFF00FFFFFF00FEFF0000030F1F1EAB
:102BE3001800FFFFFFFF808000008080FFFFFFFFD2
:102BF300400000021A7AFAF2E38383C3F2FE7E3EB8
:102C03000E0000070F1F3F3F7F7F7F7F7F7F7F7F08
:102C13007F7F7F7F7F7F7F7F7F7F7F7F7F7F7F7FC1
:102C23007F7F7F7F7F7F7F0000000000007F7F7FAB
:102C33003F3F1F0F07000000007F7F007F7F7F0063
:102C43003F7F00000301010101017F7F7F7F0000BF
:102C5300000040607F7F7F3F000000406070787D10
:102C63003F1F1F3F7F787060400000040100FB009E
:102C73000000000002010047000000020100820082
:102C83000000020100840000000201008600000031
:102C9300020100880000000201008A000000020116
:102CA300008C0000000201008E0001000201009070
:102CB30000000002010092000000020100940000E5
:102CC3000002010096000A000201009800000002C1
:102CD30001009A0000000201009C000000020100B4
:102CE3009E000000020100A0000000020100A200FB
:102CF3000000020100A4000000020100A600000081
:102D0300020100A8000000020100AA000000020165
:102D130000AC000000020100AE000000020100B0A0
:102D2300000000020100B2000000020100B4000034
:102D330000020100B6000000020100B8000000021A
:102D43000100BA000000004B4559302631263221DC
:102D5300004B4559312632212020004B455930265E
:102D630032212020004B4559302631212020004BB1
:102D73004559322120202020004B45593121202064
:102D83002020004B4559302120202020004B45595D
:102D930020507265737365643A2020004C6F6E6730
:102DA3002051697520692E732E742E00B1B1BEA90E
:102DB300C1FAC7F1D6C7C4DCBFC6BCBC00414433AB
:102DC3003A2530356420004144323A2530356420B9
:102DD300004144313A2530356420004144303A25DE
:102DE30030356420004C6F6E672051697520692E61
:102DF300732E742E00B1B1BEA9C1FAC7F1D6C7C4F0
:102E0300DCBFC6BCBC00536572766F3A25303564AF
:102E130020004C5120536572766F20546573740003
:102E230050574D3A20253035643B004C51204D6FAF
:102E3300746F72205465737400583A0000000000E8
:102E4300000000000000000000543A253034640004
:102E53004D3A25303464204D743A253034640045AE
:102E63003A253034642025303464004C563A2530FA
:102E730033642052563A25303364004C503A25309F
:102E830033642052503A253033640049443A307851
:102E93002530325800616E676C653A2566004C51E7
:102EA30032303638394D204661696C004C5132302E
:102EB3003638394D205465737400456E63323A20B9
:102EC3002530346420200050574D3A202530356496
:102ED3003B00456E63313A2025303464202000B135
:102EE300B1BEA9C1FAC7F1D6C7C4DCBFC6BCBC001A
:00000001FF
